:02000000A62B2D
:10000800FF00030E83018316E6000A08E7008A0151
:1000180070088312A3007108A2007208A100730877
:10002800A000FB308B053308F0003408F1003508D8
:10003800F2003608F300F00A0319F10A0319F20A6C
:100048000319F30A7008B3007108B4007208B50008
:100058007308B600F83081002308F0002208F10088
:100068002108F2002008F300831667088A00660E4C
:080078008300FF0E7F0E09005A
:0600800000000000080072
:0E008600213083120313FD00FD0B47280800F4
:100094000F3083120313FC004730FD00FD0B502882
:0A00A400FC0B5028000000000800CB
:1000AE0083160313EF1B5E288312861160288312BA
:1000BE00861583166F1B6628831206116828831215
:1000CE0006158316EF1A6E28831286107028831277
:1000DE00861483166F1A76288312061078288312D8
:1000EE000614831656187E2883120616802883124D
:1000FE0006128616402086128316EF19892883125F
:10010E0086118B288312861583166F1991288312F8
:10011E0006119328831206158316EF189928831259
:10012E0086109B288312861483166F18A1288312BB
:10013E000610A3288312061483165618A9288312B4
:10014E000616AB28831206128616402086128316D8
:0C015E00561CB3284A20B4284320080097
:10016A0083160313EF0183120317950196011030CA
:10017A009700043016020318F428F030031388009D
:10018A008030F0007008083E840003171709F00059
:10019A0070088000402040200F3003130805F0004B
:1001AA0070080317940070080319EE2815088316BF
:1001BA000313EF008312031714080319EA28940C97
:1001CA00941383160313EF0ADF28043083120317EC
:1001DA009600970D171004309507960ABE288316C5
:0801EA0003136F08F000080088
:1001F200063083120313FD00FD0BFD2800000800EA
:10020200710DF80DF90D7408F8027508031C750FCD
:10021200F902F00DF10D0F30FC00710DF80DF90D22
:100222007408701C1A29F8027508031C750FF9026C
:100232001F29F80775080318750FF907F00DF10D5E
:10024200FC0B0E2970182B297408F807750803187F
:08025200750FF9070000080018
:0E025A008316031358088A0057088200080014
:10026800F830831203138100B301B401B501B6015C
:100278008B160317130803133602031D532903179C
:10028800120803133502031D53290317110803131A
:100298003402031D532903171008031333020318EC
:0A02A80056293D29DF308B050800C0
:1002B20083120313F8010830FC00700DF80D740866
:1002C200F80203186629F8070310F00DFC0B5E29EB
:0202D200080022
:1002D4008316031356106E08EF0057208316561426
:0202E400080010
:1002E600B5207008EE000F3083120805F0000319E0
:0E02F6007E29F920762983166E08F000080094
:10030400831203138914643003179000910192013E
:1003140093013421FD308905643003179000910165
:0803240092019301342108004D
:10032C00A829803083160313EA00BB29C030EA00E9
:10033C00BB299430EA00BB29D430EA00BB298030B9
:10034C00EA00BB29831603136A08013A031997299B
:10035C006A08023A03199C296A08033A03199F296F
:10036C006A08043A0319A229A5296B03F0006A084C
:10037C00F0077008EA0056147008EF005720831637
:0E038C0056106C08EF00572083165614080018
:10039A00831203132230FC00F801F901FA01FB0170
:1003AA00FC030319032A0310FB0CFA0CF90CF80CD2
:1003BA00F30CF20CF10CF00C031CD529FC03031905
:1003CA00F5297408F80775080318750FF9077608F0
:1003DA000318760FFA0777080318770FFB07D9294E
:1003EA007408F80775080318750FF90776080318D3
:0E03FA00760FFA0777080318770FFB07080045
:1004080083120313FB01FA01F9018030F800F10CA3
:10041800F00C031C182A7408F90775080318750FDF
:10042800FA070318FB0A0310F01F202A7408FA07BA
:1004380075080318750FFB07FB0CFA0CF90CF80C80
:10044800031C0B2A7B08F3007A08F2007908F100F4
:060458007808F000080026
:10045E00831203137408003A031D3E2A7508003AEE
:10046E00031D3E2AFF30F0007F30F100972A8312E1
:10047E000313FD01F901F80171087004031900342A
:10048E0071087506FA00FA1BFD09FB01F51F542AC7
:10049E00F409F509F40A0319F50AF11F5B2AF009AC
:1004AE00F109F00A0319F10A71087504FA00FA1B32
:1004BE00702A01217B18832AFD1F0034F009F109EF
:1004CE00F00A0319F10AF809F909F80A0319F90AE9
:1004DE000034F51F7F2AF11B7B2A7108F900700882
:1004EE00F800F101F001632AF101F001F00A003485
:1004FE00F109F009FB0A602AF80A0319F90A7408CF
:10050E007802031D632A75087902031D632AF90117
:10051E00F801F00A0319F10AF11F632A0000FF34F3
:02052E000800C3
:1005300083120313A401732170088312A4007008AE
:1005400003199B2A24080F3A031DA92A2330F0001F
:10055000BE2A0E30F4002408F00059217808F0007B
:1005600030307007F3007008F100F10CF113F10C5A
:0E057000F11371087302F0007008A400080077
:10057E00D12A803083160313EA00E42AC030EA0041
:10058E00E42A9430EA00E42AD430EA00E42A8030E7
:10059E00EA00E42A831603136A08013A0319C02AF3
:1005AE006A08023A0319C52A6A08033A0319C82AC7
:1005BE006A08043A0319CB2ACE2A6B03F0006A08A4
:1005CE00F0077008EA007008EF00572083165610E7
:1005DE00ED016D086C07840000080319FE2A6D08F2
:1005EE006C0784000008EE006A21ED0AF02A56140A
:0205FE000800F3
:10060000073083120313920097019D01FA3083167D
:06061000920087010800C2
:1006160083120313F801F9011030FC00710DF80D77
:10062600F90D7408F8027508031C750FF902031812
:10063600232B7408F80775080318750FF9070310BC
:0A064600F00DF10DFC0B112B080064
:10065000831203131F151F1D2E2B2B2B1E08F100B9
:0E066000F00183161E08F0040030F1040800BB
:10066E0083160313861206120610861006118611C3
:10067E0083128612061286110611861006104A2063
:10068E004A204A20861406148616402086124A20D6
:10069E008616402086124A208616402086124A2050
:1006AE0006108616402086124A2086164020861294
:1006BE00861086158616402086124A20861106144C
:1006CE0086164020861206108616402086124A2074
:1006DE0086164020861206148616402086124A2060
:1006EE0006108616402086128615061586140614E8
:0E06FE008616402086124A20831656140800E5
:10070C00803083120313F0007008083E8400FF3021
:04071C008000080051
:100720004130831203139F00CE3083169F00FF30A9
:040730008500080038
:100734002D218A110A128000840AD70A0319D80AC3
:08074400F003031D9A2B0800CD
:10074C004A26E0308B0007308316031381008701A3
:10075C00831287018316890183128901372386232B
:10076C009023002383160130EF00572001308316AD
:10077C00EA000130EB00A830EC00BF22C030EF00E3
:10078C005720EE01EF01982270088316E5006508EA
:10079C00233A031DDB2B003083126F06031DD82B6D
:1007AC0000306E06031DDB2B752C83166508233A6F
:1007BC000319E52B65083A3A0319E52B052C013092
:1007CC00EA000130EB00C830EC00BF22D0308312BD
:1007DC0003179000073091009201930134210130EE
:1007EC008316EA000130EB00B830EC00BF22C030B9
:1007FC00EF005720982270088316E500DB2B82212E
:10080C006E08033CF3006F08031C013EF401F40274
:10081C007308F0007408F100F00DF10D7010700801
:10082C00DB3E8400831665088000840A800100305A
:10083C0083126F06031D242C02306E06031D2E2C12
:10084C0002308316EA000330EB003A30EC009621BC
:10085C00803083126F06F00080307002031D382C3C
:10086C0002306E020318442C02308316EA00831205
:10087C006E0A8316EB006508EC009621803083121B
:10088C006F06F00080307002031D4E2C02306E0299
:10089C00031C5B2C02308316EA00023083126E07B5
:1008AC008316EB006508EC0096218312EE0A0319FF
:1008BC00EF0A0430F4000030F5006E08F0006F0809
:1008CC00F1002F227808F0007908F1007008EE0092
:1008DC007108EF00982270088316E500CD2B831663
:1008EC000130EF0057203030F4000030F500831653
:1008FC005B08F0005C08F1002F227808F000790802
:10090C00F10070088316E8007108E9003030F4003B
:10091C000030F5005D08F0005E08F1002F22780829
:10092C00F0007908F1000A30F4000030F5000422E0
:10093C0070088316E80771080318013EE907303088
:10094C00F4000030F5005F08F0006008F1002F2281
:10095C007808F0007908F1003C30F4000030F50024
:10096C00042270088316E80771080318013EE90792
:10097C003030F4000030F5006108F0006208F1003E
:10098C002F227808F0007908F1005830F40002307A
:10099C00F500042283166808F00769080318013E65
:1009AC00F1070030F11BFF30F200F30083125A08FC
:1009BC00F4005B08F5005C08F6005D08F700CD213B
:1009CC007008DE007108DF007208E0007308E100B7
:1009DC0001308316EA000130EB004D30EC00BF22F1
:1009EC000230EA000130EB00A030EC00BF22831291
:1009FC005E080317900003135F080317910003139D
:100A0C006008031792000313610803179300342145
:100A1C0001308316EF00572001308316EA000130B5
:100A2C00EB006230EC00BF220C30831297000C30CC
:100A3C009D00033089047D3095007D309B0083122E
:100A4C00891C712D28237008D9007108DA00323006
:100A5C00F4000030F5000422FF30F4000330F50000
:100A6C000B2370088316E3007108E400F430831242
:100A7C0003179000013091009201930134218519E4
:100A8C004C2D05194C2D303087005C2D851D532DB8
:100A9C00051D532D483087005C2D851D582D2030A9
:100AAC0087005C2D051D5C2D1030870083166408B3
:100ABC00003C031D632D6308193C0318702DFD3099
:100ACC008312890502308316EA000130EB004230B4
:100ADC00EC00BF22252DFA3083129500FA309B00D2
:100AEC008518902D85197F2D05197F2D30308700A5
:100AFC008F2D851D862D051D862D483087008F2D49
:100B0C00851D8B2D203087008F2D051D8F2D1030CE
:100B1C008700762DFE308905870195019B01970191
:100B2C009D0101308316EF00572001308316EA0037
:100B3C000130EB002530EC00BF22D03083120317BC
:100B4C0090000730910092019301342102308316FA
:100B5C00EA000130EB003730EC00BF22D0308312BA
:100B6C00031790000730910092019301342101305A
:0A0B7C008316EF005720B82BC22D9E
:100C9400243084004A3083120313F000C8308316D2
:100CA400D7000530D8009A23A030840008300313FD
:100CB400F00040308316D7000630D8009A236E30F7
:100CC400840002300313F00048308316D700063046
:100CD400D8009A23A83084002E300313F000123079
:0C0CE4008316D7000630D8009A230800C1
:020B900000342F
:100B920047344F344F34443420344D344F3452347C
:0C0BA2004E3449344E34473421340034C2
:080BAE0000340034003400346F
:100BB60048346134703470347934203444346134C8
:060BC600793421340034F3
:100BCC004C346934673468347434733420344F349F
:060BDC004E342134003408
:100BE2005334773465346534743420344434723485
:0A0BF200653461346D34733400344F
:080BFC00E83403340034003436
:080C0400003400340034003418
:100C0C0041344C34413452344D3420344F344E340E
:080C1C0021342134213400349D
:100C240045346E3474346534723420344E34613453
:100C340070342034743469346D3465343A34003497
:100C440045346E3474346534723420344E34613433
:100C540070342034743469346D3465343A34003477
:100C640049346E34763461346C34693464342034F9
:0C0C740049346E3470347534743400342C
:100C80005A347A347A347A347A342E342E34003426
:040C900000340034F8
:02400E004A2F37
:00000001FF
